:100000000AC024C023C022C021C075C01FC01EC0AA
:100010001DC01CC01BC011271FBFCFE5D0E0DEBF35
:10002000CDBF20E0A0E4B0E0E4EFF3E402C0319102
:100030003D93A834B207D9F720E0A8E4B0E001C0AE
:100040001D93A435B207E1F702D0D2C1D9CF48ED54
:100050004CBF16BF41B1476041B942B1476042B998
:100060004DB549604DBD4BB542604BBD43E047BD0A
:1000700040E246BD789480E070E061E001C070E04D
:1000800040B1542F587043FD2EC07113F9CFF8942E
:100090008FE59AEE81509040E9F700C0000041A141
:1000A0004F5F41A941A1493010F441A101C0462F41
:1000B00041A911AB12AB13AB15A941A1413009F411
:1000C00054E656A917A962A963A964A910AB1FA990
:1000D0001EA91DA91CA91BA91AA919A918A960A9BB
:1000E000862F762FCDCF039BCBCF882341F27894F8
:1000F00080E070E0C5CF1F930F930FB70F9310E010
:100100004F935F936F937F9341A1413031F008F497
:1001100066C1493008F4F0C062C141A34F5F41ABF2
:1001200042A34F5F42AB43A34F5F43AB40A34F5F3C
:1001300040AB40A34F3F09F0A0C010AB4FA14F5FB1
:100140004FA94FA14B3510F44FA101C040E04FA97A
:100150004FA14D3328F44F31A8F5413028F48DC01C
:100160004B3508F45DC089C042A1442311F042A17F
:1001700001C041E042A943A1411302C043A101C013
:1001800040E043A942A1442319F045A14F5F05C0B7
:1001900045A1442311F045A1415045A943A1442361
:1001A00019F046A14F5F05C046A1442311F046A1B6
:1001B000415046A947A1411302C047A101C040E0F8
:1001C00047A95BC042A1411302C042A101C040E067
:1001D00042A944A1442311F044A101C041E044A933
:1001E00042A1442319F045A14F5F05C045A1442316
:1001F00011F045A1415045A946A1411302C046A1B5
:1002000001C040E046A944A1442319F047A14F5F33
:1002100005C047A1442311F047A1415047A92DC073
:1002200043A1442311F043A101C041E043A944A1EB
:10023000411302C044A101C040E044A945A14113BB
:1002400002C045A101C040E045A943A1442319F0E3
:1002500046A14F5F05C046A1442311F046A141507D
:1002600046A944A1442319F047A14F5F05C047A107
:10027000442311F047A1415047A941A3413088F0E0
:10028000443618F0443639F00CC051A345A1541738
:1002900040F0109A06C011AB009B03C045A141136A
:1002A00093C042A3413088F0443618F0443639F008
:1002B0000CC052A346A1541740F0119A06C012ABCD
:1002C000019B03C046A1411381C043A3413008F400
:1002D00086C0443618F0443641F081C053A347A18C
:1002E000541708F47CC0129A7AC013AB029B77C0F3
:1002F00047A141136DC073C04CA15DA14F5F5F4F1B
:100300005DA94CA948A159A14F5F5F4F59A948A9C0
:1003100048A159A14F3F51079CF119A918A940A123
:10032000442329F04AA15BA14F5F5F4F04C04AA15B
:100330005BA14150510B5BA94AA94AA15BA14F3176
:10034000510724F44AA15BA15523D4F44AA15BA12F
:100350004F31510734F04EE150E05BA94AA910A992
:100360000FC04AA15BA155235CF41BA91AA94EA199
:100370004F5F4EA94EA1433019F41EA941E040A998
:100380004CA15DA14130510754F14436510724F08E
:100390004436510761F023C06CA17DA14AA15BA145
:1003A00064177507E4F042B1476042B918C01DA94F
:1003B0001CA9009904C0019902C0029B10C04AA167
:1003C0005BA1452B39F40BC010986BCF11987DCFF2
:1003D000129805C041A152B14A5F452342B97F91AD
:1003E0006F915F914F910F910FBF0F911F911895D2
:0403F000F894FFCFAF
:0803F400010101010100640098
:00000001FF
